:100000000C945D000C9485000C9485000C94850084
:100010000C9485000C9485000C9485000C9485004C
:100020000C9485000C9485000C9485000C9485003C
:100030000C9485000C9485000C9485000C9485002C
:100040000C9444090C9485000C9437080C94110806
:100050000C9485000C9485000C9485000C9485000C
:100060000C9483020C94850000000008000201003B
:100070000003040700000000000000000000000072
:10008000250028002B0000000000240027002A0083
:10009000040404040404040402020202020203032E
:1000A0000303030301020408102040800102040836
:1000B0001020010204081020C90911241FBECFEF2F
:1000C000D8E0DEBFCDBF11E0A0E0B1E0E6E8FCE1A2
:1000D00002C005900D92AA39B107D9F723E0AAE929
:1000E000B1E001C01D92A837B207E1F710E0CDE5FD
:1000F000D0E004C02197FE010E94F30BCC35D1075C
:10010000C9F70E94870A0C94410E0C94000085EDFB
:100110008093BC008091BC0084FDFCCF10922B0228
:1001200008954091DC01262F30E0240F311D21324B
:100130003105DCF420912B022430C9F4FC0180E06D
:1001400090E0861758F43091DC012191DC01A6542F
:10015000BE4FA30FB11D2C930196F3CF8091DC010C
:10016000680F6093DC0180E0089581E0089582E0EB
:1001700008950895E0912D0280912C02E81730F443
:10018000F0E0E25DFD4F808190E008958FEF9FEFFA
:10019000089590912D0280912C02981750F4E92F28
:1001A000F0E0E25DFD4F208130E09F5F90932D02F3
:1001B00002C02FEF3FEFC901089580912C0290E01B
:1001C00020912D02821B91090895CF92DF92EF9228
:1001D000FF920F931F93CF93DF937C01262F972FCE
:1001E0008A0180910402882391F0C62FD72F6E01D7
:1001F000C40ED51ECC15DD0571F06991D701ED91C6
:10020000FC910190F081E02DC7010995F3CF642F97
:10021000822F0E949100C801DF91CF911F910F9111
:10022000FF90EF90DF90CF900895CF93DF931F92D0
:10023000CDB7DEB76983209104022223D1F020914B
:100240000102203240F021E030E0FC0133832283C0
:1002500080E090E015C080910202E82FF0E0E656C1
:10026000FE4F998190838F5F8093020280930102F9
:1002700005C061E0CE0101960E94910081E090E00E
:100280000F90DF91CF910895209101029091030288
:10029000213208F04AC080912B028111FCCF32E05C
:1002A00030932B0231E030932A023FEF3093290242
:1002B0001092280220932702AAE9B1E045E052E01B
:1002C000FA013E2F341B321718F43D913193F9CFC8
:1002D0001092260220912602990F922B90932602CB
:1002E00090912502913061F410922502909126029E
:1002F0009093BB009091BC0093FDF8CF95EC01C0AA
:1003000095EE9093BC0090912B029230E1F3909186
:1003100029029F3F79F080912902803241F080913B
:100320002902803331F084E005C081E003C082E01F
:1003300001C083E0109202021092010210920402A6
:100340000895CF92DF92EF92FF920F931F93CF9376
:10035000DF93EC018A018A8191E0909304028093FB
:100360000302109202021092010288819981DC013D
:10037000ED91FC910190F081E02D099588819981A2
:100380000E9444010E9413096B017C010E94130921
:10039000DC01CB018C199D09AE09BF09883E934051
:1003A000A105B10598F32A8180912B028111FCCF20
:1003B00081E080932B0280932A029FEF9093290281
:1003C00010922802809327028093260290912602A1
:1003D000822F880F892B80932602809125028130FD
:1003E00061F410922502809126028093BB008091D7
:1003F000BC0083FDF8CF85EC01C085EE8093BC0086
:1004000080912B028130E1F380912802823018F430
:100410008091280201C082E0A5E0B2E02EE232E045
:10042000F9019E2F921B981718F49D919193F9CF83
:1004300010922D0280932C0288819981DC01ED912C
:10044000FC910680F781E02D0995F82E888199812D
:10045000DC01ED91FC910680F781E02D099520E00B
:1004600030E03F2D822B932BF80191838083DF9125
:10047000CF911F910F91FF90EF90DF90CF90089553
:100480000F931F93CF93DF9300D0CDB7DEB78C01CE
:10049000DC0112968C91129791E090930402809364
:1004A000030210920202109201028D919C91DC01D4
:1004B000ED91FC910190F081E02D4A8359830995DB
:1004C000F80180819181DC01ED91FC910190F08136
:1004D000E02D5981652F0995F80180819181DC011A
:1004E000ED91FC910190F081E02D4A81642F0995F6
:1004F000F801808191810F900F90DF91CF911F9132
:100500000F910C9444011F920F920FB60F92112479
:100510002F933F934F935F936F937F938F939F930B
:10052000AF93BF93EF93FF938091B900887F80369C
:1005300009F49CC068F5883209F45BC090F48031FE
:1005400009F454C038F4882309F4F6C0883009F45B
:100550004DC0F6C0883109F44CC0803209F45DC04A
:10056000EFC0803409F468C048F4803309F455C002
:10057000883309F0E5C080932902D8C0803509F49A
:100580004FC0883509F45DC0883409F0D9C0D6C0A1
:10059000883909F4C7C0A8F4883709F467C038F46B
:1005A000883609F463C0803709F460C0C9C0883850
:1005B00009F4B8C0803909F45FC0803809F0C0C0C0
:1005C0005BC0803B09F486C038F4803A09F466C009
:1005D000883A09F47FC0B4C0803C09F4A7C0883CC5
:1005E00009F4A4C0883B09F48AC0AAC080912602FD
:1005F00010C09091280280912702981770F5E09121
:10060000280281E08E0F80932802F0E0EB5FFD4F1F
:1006100080818093BB0085EC86C0809329028EC0C8
:10062000E091280281E08E0F809328028091BB0028
:10063000F0E0EB5FFD4F80839091280280912702CC
:100640006EC0E091280281E08E0F80932802809195
:10065000BB00F0E0EB5FFD4F808380912A028111A7
:100660006DC081E08093250284EA61C083E08093BD
:100670002B0210920002CFCF80910002803208F04E
:1006800051C0E091000281E08E0F809300028091C2
:10069000BB00F0E0E052FE4F8083BDCF85EC80933D
:1006A000BC0010922B0280910002803230F4E09165
:1006B0000002F0E0E052FE4F10826091000270E014
:1006C000E091DE01F091DF0180EE91E0099510925A
:1006D000000236C084E080932B021092DD0110925C
:1006E000DC01E091DA01F091DB0109958091DC01F8
:1006F000811105C081E08093DC011092BA01E09184
:10070000DD0181E08E0F8093DD01F0E0E654FE4FC5
:1007100080818093BB009091DD018091DC0198176E
:1007200008F479CF85E88093BC000AC085EC8093FB
:10073000BC0010922B0204C0109229020E94870074
:10074000FF91EF91BF91AF919F918F917F916F91A9
:100750005F914F913F912F910F900FBE0F901F907F
:1007600018954F925F926F927F928F929F92AF9265
:10077000BF92CF92DF92EF92FF920F931F93CF938E
:10078000DF9300D0CDB7DEB78C010E9438096B0132
:100790007C01F80163A974A9072E000C880B990B42
:1007A0000E94150D9B01AC0160E070E080E89FE3C2
:1007B0000E946B0C20E030E04AE754E40E94CA0D2E
:1007C0000E94DD0CCB01770FAA0BBB0BF80145A9EA
:1007D00056A967A970AD840F951FA61FB71F8C156A
:1007E0009D05AE05BF0508F005C10E943809F80156
:1007F00065AB76AB87AB90AF7801F8E1EF0EF11CFB
:10080000AE014F5F5F4F61E0C7010E94A101AE01E1
:100810004F5F5F4F62E0C7010E94A101C7010E94C4
:100820008E09F801438D548D65E0C7010E94400296
:10083000AE014F5F5F4F63E0C7010E94A101F80165
:10084000658970E080E090E04AE00E94C50780E2A0
:1008500091E00E94A507C7010E948E09F801C3A478
:10086000D4A4E5A4F6A4C7A2D0A6E1A6F2A62BE7DD
:100870003BEC4CEB5CE30E94CA0D4B015C0128E4AD
:1008800033E344E75FE3C701B6010E94CA0D9B0151
:10089000AC01C501B4010E94FA0B9B01AC01F80147
:1008A00063A774A785A796A7C701B6010E94FA0B94
:1008B0006B017C014B015C019B01AC010E94370E76
:1008C000882319F082E291E01AC026013701E894EA
:1008D00077F82FEF3FEF4FE75FE7C301B2010E94C8
:1008E000370E81110FC02FEF3FEF4FE75FE7C301D6
:1008F000B2010E94660C18162CF486E291E00E9468
:10090000A50774C02FEF3FEF4FE75FE4C701B601C3
:100910000E94C50D18161CF48AE291E0F0CF2FEF6B
:100920003FEF4FE75FECC701B6010E94660C87FD01
:10093000F3CF20E030E0A901C701B6010E94660CA8
:1009400087FF09C08DE20E94060846015701B7FAE9
:10095000B094B7F8B0942AE037ED43EA5BE3C50101
:10096000B4010E94FA0B4B015C010E94E40C6B0184
:100970007C010E94130D9B01AC01C501B4010E94D2
:10098000F90B4B015C014AE0C701B6010E94C507A3
:100990008EE20E94060820E030E040E251E4C5010A
:1009A000B4010E94CA0D4B015C010E94E40C6B0172
:1009B000E12CF12C4AE0C701B6010E94C507C7012E
:1009C000B6010E94130D9B01AC01C501B4010E9448
:1009D000F90B20E030E040E251E40E94CA0D0E9491
:1009E000E40C80E090E04AE00E94C5078EE291E0CE
:1009F0000E94A5070F900F90DF91CF911F910F914B
:100A0000FF90EF90DF90CF90BF90AF909F908F902E
:100A10007F906F905F904F900895CF93DF93EC019C
:100A200060E070E08E810E94B50860E070E088852B
:100A30000E94B5081D8A1F8A1C86DF91CF910895F8
:100A4000FF920F931F93CF93DF93EC01062F142F88
:100A5000F22E413041F470E08E810E94B50860E0D2
:100A600070E0888509C04F3F49F470E088850E9496
:100A7000B50860E070E08E810E94B5080D8B1F8B79
:100A8000FC86DF91CF911F910F91FF9008958F9277
:100A90009F92AF92BF92CF92DF92EF92FF921F93FD
:100AA000CF93DF93EC010E9413096B017C016C81F1
:100AB0007D81072E000C880B990B0E94150D9B0160
:100AC000AC0160E070E080E89FE30E946B0C20E0E6
:100AD00034E244E759E40E94CA0D0E94DD0CCB01C8
:100AE000770FAA0BBB0B4FA558A969A97AA9840F48
:100AF000951FA61FB71F8C159D05AE05BF0508F0F5
:100B00007AC00E9413096FA778AB89AB9AABCE016C
:100B100048960E948E09CBA4DCA4EDA4FEA4CFA22B
:100B2000D8A6E9A6FAA62BE73BEC4CEB5CE30E94C7
:100B3000CA0D4B015C0128E433E344E75FE3C701DE
:100B4000B6010E94CA0D9B01AC01C501B4010E940F
:100B5000FA0B9B01AC016BA77CA78DA79EA7C701D1
:100B6000B6010E94FA0B4B015C011F89612F012E17
:100B7000000C770B880B990B0E94150DA5019401B1
:100B80000E94CA0D6B017C012D853E854F855889D9
:100B90000E94C50D181674F420E030E040E854E4DB
:100BA000C501B4010E94660C882321F06D898E89ED
:100BB000681B0DC029893A894B895C89C701B60138
:100BC0000E94660C87FF06C06E898D89680F2C8590
:100BD000412F03C02C85412F6D89CE01DF91CF912C
:100BE0001F91FF90EF90DF90CF90BF90AF909F90BC
:100BF0008F900C942005DF91CF911F91FF90EF9083
:100C0000DF90CF90BF90AF909F908F9008950F93FB
:100C10001F93CF93DF93EC018C01085E1F4F8BEE87
:100C200092E0998F888F10922D0210922C021092D0
:100C300002021092010210922B0281E080932A029C
:100C40001092250261E082E10E94690861E083E17F
:100C50000E946908E9EBF0E080818E7F80838081CB
:100C60008D7F808388E48093B80085E48093BC0006
:100C700080E090E1A0E0B0E08B8F9C8FAD8FBE8FC5
:100C80008AE090E0A0E0B0E08F8F98A3A9A3BAA378
:100C900082E090E0A0E0B0E08BA39CA3ADA3BEA354
:100CA00040E050E165E0C8010E9440024FE959E38D
:100CB00060E0C8010E94400280E090E2A0E0B0E065
:100CC0008B8F9C8FAD8FBE8F84E190E0A0E0B0E071
:100CD0008F8F98A3A9A3BAA381E090E0A0E0B0E031
:100CE0008BA39CA3ADA3BEA340E050E265E0C80186
:100CF0000E9440024FE951E060E0C8010E944002BA
:100D00008E810E94860788850E9486078881DF91F0
:100D1000CF911F910F910C948607CF92DF92EF92A3
:100D2000FF920F931F93CF93DF936C017A018B0196
:100D3000C0E0D0E0CE15DF0589F0D8016D918D01BE
:100D4000D601ED91FC910190F081E02DC60109954D
:100D5000892B11F47E0102C02196ECCFC701DF91EF
:100D6000CF911F910F91FF90EF90DF90CF9008955A
:100D7000FC01918D828D981761F0828DDF01A80FA3
:100D8000B11D5D968C91928D9F5F9F73928F90E0C5
:100D900008958FEF9FEF0895FC01918D828D981734
:100DA00031F0828DE80FF11D858D90E008958FEF71
:100DB0009FEF0895FC01918D228D892F90E0805C3A
:100DC0009F4F821B91098F73992708958EE492E0BB
:100DD0000E94DA0621E0892B09F420E0822F089591
:100DE000FC01848DDF01A80FB11DA35ABF4F2C91C8
:100DF000848D90E001968F739927848FA689B78997
:100E00002C93A089B1898C9180648C93938D848D6F
:100E1000981306C00288F389E02D80818F7D80833E
:100E20000895EF92FF920F931F93CF93DF93EC01FE
:100E300081E0888F9B8D8C8D981305C0E889F98996
:100E4000808185FD24C0F62E0B8D10E00F5F1F4FB3
:100E50000F731127E02E8C8DE8120CC00FB607FC23
:100E6000FACFE889F989808185FFF5CFCE010E940C
:100E7000F006F1CF8B8DFE01E80FF11DE35AFF4F15
:100E8000F0820B8FEA89FB898081806207C0EE893E
:100E9000FF896083E889F98980818064808381E0AB
:100EA00090E0DF91CF911F910F91FF90EF90089507
:100EB000CF93DF93EC01888D8823C9F0EA89FB8901
:100EC000808185FD05C0A889B9898C9186FD0FC0F8
:100ED0000FB607FCF5CF808185FFF2CFA889B989CD
:100EE0008C9185FFEDCFCE010E94F006E7CFDF9118
:100EF000CF91089580E090E0892B29F00E94E606CA
:100F000081110C94000008950E943C0E90E0FC01B9
:100F1000EC55FF4F2491FC01E057FF4F849188234B
:100F200099F090E0880F991FFC01EA57FF4FA591B7
:100F3000B491FC01E458FF4F859194918FB7F894D8
:100F4000EC91E22BEC938FBF0895009769F0FC01C0
:100F500001900020E9F73197AF01481B590BBC0104
:100F60008EE492E00C948D0680E090E00895CF939B
:100F7000DF930E94A507EC018EE291E00E94A50795
:100F80008C0F9D1FDF91CF9108958F929F92AF920A
:100F9000BF920F931F93CF93DF93CDB7DEB7A19787
:100FA0000FB6F894DEBF0FBECDBF19A2423008F4D1
:100FB0004AE08E010F5D1F4F842E912CA12CB12C85
:100FC000A50194010E94D10BE62FB901CA0101507D
:100FD0001109EA3014F4E05D01C0E95CD801EC933A
:100FE000232B242B252B61F7C8010E94A507A1966E
:100FF0000FB6F894DEBF0FBECDBFDF91CF911F912A
:101000000F91BF90AF909F908F900895E0914E0206
:10101000F0914F020190F081E02D682F8EE492E074
:1010200009941F920F920FB60F9211242F933F93A2
:101030004F935F936F937F938F939F93AF93BF93E0
:10104000EF93FF938EE492E00E94F006FF91EF9100
:10105000BF91AF919F918F917F916F915F914F91D0
:101060003F912F910F900FBE0F901F9018951F92D8
:101070000F920FB60F9211242F938F939F93EF939C
:10108000FF93E0915E02F0915F028081E091640243
:10109000F091650282FD12C09081809167028F5F9E
:1010A0008F7320916802821751F0E0916702F0E09F
:1010B000E25BFD4F958F8093670201C08081FF91B5
:1010C000EF919F918F912F910F900FBE0F901F90D6
:1010D000189590E0FC01E859FF4F3491FC01EC5564
:1010E000FF4F2491FC01E057FF4FE491EE2309F4F8
:1010F0003BC0332339F1333091F038F43130A9F06B
:10110000323001F584B58F7D12C0373091F0383020
:10111000A1F03430B9F4809180008F7D03C08091BC
:1011200080008F77809380000DC084B58F7784BD59
:1011300009C08091B0008F7703C08091B0008F7D8F
:101140008093B000F0E0EE0FFF1FE458FF4FA59131
:10115000B4918FB7F894EC91611103C020952E23C0
:1011600001C02E2B2C938FBF08951F93CF93DF9335
:10117000182FEB010E948607209711F460E004C04D
:10118000CF3FD10539F461E0812FDF91CF911F91DD
:101190000C946908E12FF0E0E859FF4FE491E33047
:1011A000F9F048F4E130B9F0E230A1F584B580629D
:1011B00084BDC8BD34C0E730E9F0E83019F1E4304F
:1011C00049F580918000806280938000D0938B00ED
:1011D000C0938A0024C084B5806884BDC7BD1FC089
:1011E00080918000806880938000D0938900C093B4
:1011F000880015C08091B00080688093B000C093D3
:10120000B3000DC08091B00080628093B000C093A5
:10121000B40005C0C038D1050CF0B5CFAFCFDF9119
:10122000CF911F9108953FB7F8948091FC0290915F
:10123000FD02A091FE02B091FF0226B5A89B05C059
:101240002F3F19F00196A11DB11D3FBFBA2FA92F45
:10125000982F8827820F911DA11DB11DBC01CD01C2
:1012600042E0660F771F881F991F4A95D1F70895AE
:101270002FB7F8946091F8027091F9028091FA0208
:101280009091FB022FBF08951F920F920FB60F92FD
:1012900011242F933F938F939F93AF93BF9380918C
:1012A000F8029091F902A091FA02B091FB023091FC
:1012B000F70223E0230F2D3720F40196A11DB11D65
:1012C00005C026E8230F0296A11DB11D2093F70249
:1012D0008093F8029093F902A093FA02B093FB0274
:1012E0008091FC029091FD02A091FE02B091FF025C
:1012F0000196A11DB11D8093FC029093FD02A09365
:10130000FE02B093FF02BF91AF919F918F913F91E9
:101310002F910F900FBE0F901F901895CF92DF92D4
:10132000EF92FF920F931F93CF93DF9300D0CDB72F
:10133000DEB78C01FC014381548165E00E944002CC
:10134000AE014F5F5F4F64E0C8010E94A101698157
:101350007A81072E000C880B990B0E94150D6B01EA
:101360007C01F80167817085818592850E94130D4B
:101370009B01AC01C701B6010E946B0C0F900F904E
:10138000DF91CF911F910F91FF90EF90DF90CF9061
:1013900008958F929F92AF92BF92EF92FF920F9318
:1013A0001F93CF93DF93EEE4F2E01382128288EE74
:1013B00093E0A0E0B0E084839583A683B78324E024
:1013C00031E03183208325EC30E03587248724EC1D
:1013D00030E03787268720EC30E0318B208B21EC02
:1013E00030E0338B228B22EC30E0358B248B26ECE3
:1013F00030E0378B268B118E128E138E148EEBEE0F
:10140000F2E01382128284839583A683B78384E1FA
:1014100091E091838083EFE3F3E007E010E0118334
:101420000083CFEFD0E0D383C283ADE4B1E0B583D6
:10143000A4831486812C912C80EFA82E81E4B82EF1
:1014400085869686A786B08A40E050E06CEC71E411
:10145000418B528B638B748B158A21E0268B178A04
:1014600080E4828F178E10A211A212A213A214A2DE
:1014700015A216A217A210A611A612A682E390E04A
:1014800094AB83AB31E4338736E0E32EF12CF78263
:10149000E68235E0E32EF12CF186E086E6E0F3E02B
:1014A00011830083D383C283B583A4831486858686
:1014B0009686A786B08A418B528B638B748B158A74
:1014C000268B178A178E10A211A212A213A214A2A1
:1014D00015A216A217A210A611A612A694AB83AB52
:1014E00082E483878BE090E0978386838AE090E0B4
:1014F0009187808784E4828FDF91CF911F910F9134
:10150000FF90EF90BF90AF909F908F900895789448
:1015100084B5826084BD84B5816084BD85B58260F8
:1015200085BD85B5816085BD80916E0081608093A9
:101530006E00109281008091810082608093810012
:101540008091810081608093810080918000816022
:10155000809380008091B10084608093B10080917D
:10156000B00081608093B00080917A0084608093A5
:101570007A0080917A00826080937A0080917A006C
:10158000816080937A0080917A00806880937A00ED
:101590001092C100E0915E02F0915F0282E08083D0
:1015A000E0915A02F0915B021082E0915C02F091AE
:1015B0005D0280E1808310926602E0916202F09108
:1015C000630286E08083E0916002F0916102808195
:1015D00080618083E0916002F09161028081886087
:1015E0008083E0916002F091610280818068808355
:1015F000E0916002F091610280818F7D80838FE3B2
:1016000093E00E94070686E093E00E9407068FE3BE
:1016100093E00E940D0586E093E00E940D058DE0A9
:101620000E948607D1E00E943809009102031091C0
:101630000303209104033091050308511C4F2F4FE1
:101640003F4F061717072807390798F40E943809F3
:101650006093020370930303809304039093050344
:10166000C09101036C2F8DE00E946908CD27C093C3
:10167000010380914903882319F08FE393E006C0AA
:1016800080911003882321F086E093E00E94B1034B
:1016900080914B03882321F08FE393E00E9447055C
:1016A00080911203882321F086E093E00E94470591
:1016B0008EE492E00E94DA06181619060CF06EC04D
:1016C0008EE492E00E94B80680930003682F70E0D9
:1016D00080E090E04AE00E94C50780E20E94060890
:1016E000809100038233B1F1D0F4803321F1813352
:1016F00009F054C061E087E00E94690820E041E001
:101700006FEF8FE393E00E94200521E041E06FEF4F
:1017100086E093E00E94200581E491E03DC084339F
:10172000A9F168F18533D1F51092100310924903A5
:101730008BE891E031C08FE393E00E940D0586E0D5
:1017400093E00E940D0560E087E00E94690881E354
:1017500091E022C061E087E00E94690821E04FEF3C
:101760006FEF8FE393E00E94200520E04FEF6FEFD3
:1017700086E093E00E94200582E591E00DC0D093C1
:1017800010031092490383E691E006C0D093490309
:101790001092100387E791E00E94B7070E947A0732
:1017A00042CFA1E21A2EAA1BBB1BFD010DC0AA1F2E
:1017B000BB1FEE1FFF1FA217B307E407F50720F0BA
:1017C000A21BB30BE40BF50B661F771F881F991F35
:1017D0001A9469F760957095809590959B01AC017E
:1017E000BD01CF010895EE0FFF1F0590F491E02D8C
:1017F00009945058BB27AA270E94110C0C948B0DFA
:101800000E947D0D38F00E94840D20F039F49F3F36
:1018100019F426F40C947A0D0EF4E095E7FB0C9481
:10182000740DE92F0E949C0D58F3BA1762077307D5
:101830008407950720F079F4A6F50C94BE0D0EF4FC
:10184000E0950B2EBA2FA02D0B01B90190010C01D0
:10185000CA01A0011124FF27591B99F0593F50F4E8
:10186000503E68F11A16F040A22F232F342F442740
:10187000585FF3CF469537952795A795F040539538
:10188000C9F77EF41F16BA0B620B730B840BBAF008
:101890009150A1F0FF0FBB1F661F771F881FC2F773
:1018A0000EC0BA0F621F731F841F48F48795779587
:1018B0006795B795F7959E3F08F0B0CF9395880F41
:1018C00008F09927EE0F9795879508950E94500D7F
:1018D00008F481E008950E947F0C0C948B0D0E9407
:1018E000840D58F00E947D0D40F029F45F3F29F0EF
:1018F0000C94740D51110C94BF0D0C947A0D0E9430
:101900009C0D68F39923B1F3552391F3951B550B67
:10191000BB27AA2762177307840738F09F5F5F4FC2
:10192000220F331F441FAA1FA9F335D00E2E3AF001
:10193000E0E832D091505040E695001CCAF72BD019
:10194000FE2F29D0660F771F881FBB1F261737076A
:101950004807AB07B0E809F0BB0B802DBF01FF279C
:1019600093585F4F3AF09E3F510578F00C94740DF8
:101970000C94BF0D5F3FE4F3983ED4F386957795C2
:101980006795B795F7959F5FC9F7880F911D969555
:10199000879597F90895E1E0660F771F881FBB1FB1
:1019A000621773078407BA0720F0621B730B840B5E
:1019B000BA0BEE1F88F7E09508950E94E40C689436
:1019C000B1110C94BF0D08950E94A40D88F09F578B
:1019D00098F0B92F9927B751B0F0E1F0660F771F53
:1019E000881F991F1AF0BA95C9F714C0B13091F049
:1019F0000E94BE0DB1E008950C94BE0D672F782FA4
:101A00008827B85F39F0B93FCCF38695779567950D
:101A1000B395D9F73EF490958095709561957F4F79
:101A20008F4F9F4F0895E89409C097FB3EF490951F
:101A30008095709561957F4F8F4F9F4F9923A9F0A7
:101A4000F92F96E9BB279395F69587957795679536
:101A5000B795F111F8CFFAF4BB0F11F460FF1BC07A
:101A60006F5F7F4F8F4F9F4F16C0882311F096E90D
:101A700011C0772321F09EE8872F762F05C06623BB
:101A800071F096E8862F70E060E02AF09A95660F74
:101A9000771F881FDAF7880F9695879597F908952D
:101AA000990F0008550FAA0BE0E8FEEF161617066F
:101AB000E807F907C0F012161306E407F50798F0D7
:101AC000621B730B840B950B39F40A2661F0232BF0
:101AD000242B252B21F408950A2609F4A140A6956C
:101AE0008FEF811D811D089597F99F6780E870E051
:101AF00060E008959FEF80EC089500240A94161684
:101B0000170618060906089500240A9412161306EB
:101B1000140605060895092E0394000C11F4882379
:101B200052F0BB0F40F4BF2B11F460FF04C06F5F95
:101B30007F4F8F4F9F4F089557FD9058440F551F6B
:101B400059F05F3F71F04795880F97FB991F61F03F
:101B50009F3F79F087950895121613061406551FB6
:101B6000F2CF4695F1DF08C0161617061806991F22
:101B7000F1CF86957105610508940895E894BB2717
:101B800066277727CB0197F908950E94500D08F436
:101B90008FEF08950E94DD0D0C948B0D0E947D0D3A
:101BA00038F00E94840D20F0952311F00C94740DF0
:101BB0000C947A0D11240C94BF0D0E949C0D70F3AF
:101BC000959FC1F3950F50E0551F629FF001729FE2
:101BD000BB27F00DB11D639FAA27F00DB11DAA1FF1
:101BE000649F6627B00DA11D661F829F2227B00D3E
:101BF000A11D621F739FB00DA11D621F839FA00DC9
:101C0000611D221F749F3327A00D611D231F849F18
:101C1000600D211D822F762F6A2F11249F5750406F
:101C20009AF0F1F088234AF0EE0FFF1FBB1F661FEA
:101C3000771F881F91505040A9F79E3F510580F0B3
:101C40000C94740D0C94BF0D5F3FE4F3983ED4F3F5
:101C5000869577956795B795F795E7959F5FC1F757
:101C6000FE2B880F911D9695879597F908950E94F0
:101C7000500D880B990B089581E090E0F8940C9436
:061C8000410EF894FFCFB5
:101C86000000000011078D06DA06B806CC065807D4
:101C9600000000001501E500DD00C900BA00B9002A
:101CA60020006E616E00696E66006F7666000D0A32
:101CB6000073746F7070696E67206D6F746F7273E6
:101CC6000063616C6C696E6720726F6C6C2066775E
:101CD600640063616C6C696E6720726F6C6C207255
:101CE600657600656E61626C656420646562756721
:101CF600206D6F74204200656E61626C65642064BD
:101D060065627567206D6F74204100646973616256
:0A1D16006C652064656275670000CB
:107E0000112484B714BE81FFF0D085E080938100F7
:107E100082E08093C00088E18093C10086E0809377
:107E2000C20080E18093C4008EE0C9D0259A86E02C
:107E300020E33CEF91E0309385002093840096BBD3
:107E4000B09BFECF1D9AA8958150A9F7CC24DD24C4
:107E500088248394B5E0AB2EA1E19A2EF3E0BF2EE7
:107E6000A2D0813461F49FD0082FAFD0023811F036
:107E7000013811F484E001C083E08DD089C08234E0
:107E800011F484E103C0853419F485E0A6D080C0E4
:107E9000853579F488D0E82EFF2485D0082F10E0AE
:107EA000102F00270E291F29000F111F8ED06801E7
:107EB0006FC0863521F484E090D080E0DECF843638
:107EC00009F040C070D06FD0082F6DD080E0C81688
:107ED00080E7D80618F4F601B7BEE895C0E0D1E017
:107EE00062D089930C17E1F7F0E0CF16F0E7DF06D8
:107EF00018F0F601B7BEE89568D007B600FCFDCFD4
:107F0000A601A0E0B1E02C9130E011968C91119780
:107F100090E0982F8827822B932B1296FA010C0160
:107F200087BEE89511244E5F5F4FF1E0A038BF0790
:107F300051F7F601A7BEE89507B600FCFDCF97BE46
:107F4000E89526C08437B1F42ED02DD0F82E2BD052
:107F50003CD0F601EF2C8F010F5F1F4F84911BD097
:107F6000EA94F801C1F70894C11CD11CFA94CF0C13
:107F7000D11C0EC0853739F428D08EE10CD085E9AC
:107F80000AD08FE07ACF813511F488E018D01DD067
:107F900080E101D065CF982F8091C00085FFFCCF94
:107FA0009093C60008958091C00087FFFCCF809118
:107FB000C00084FD01C0A8958091C6000895E0E648
:107FC000F0E098E1908380830895EDDF803219F02E
:107FD00088E0F5DFFFCF84E1DECF1F93182FE3DFCA
:107FE0001150E9F7F2DF1F91089580E0E8DFEE27F6
:047FF000FF270994CA
:027FFE00040479
:0400000300007E007B
:00000001FF